:03000000020006F5
:03005F0002000399
:0300030002006296
:20006200C28C758901758C27758A10750AC0750BF9750CA4750DB0750E99750F92751082B2
:200082007511F87512807513907514BF7515897516FF752000751E0C750900751F03751905
:2000A2000C751A0C751B0C751C0C752100E520700302014875080C7580F720860575080167
:2000C200800E20850575080280062084037508037580FB208605750804800E2085057508E9
:2000E2000580062084037508067580FD208605750807800E208505750808800620840375C9
:2001020008097580FE20860575080A800E208505750800800620840375080BE508B51E027B
:200122008010740CB508028009E51D2419F8A608051D7404B51D0C752000E5217005D28C9A
:2001420075210185081E308D19AF1C0F8F1CBF0A09751C00E51BFF04F51BC28D758C27759E
:200162008A1020A006752001751D0020A111AF1A0F8F1ABF0A09751A00E519FF04F5192012
:20018200A219E51A700FE5196011751A09E519FF14F5198006E51AFF14F51A20A311AF1CB8
:2001A2000F8F1CBF0A09751C00E51BFF04F51B20A419E51C700FE51B6011751C09E51BFFA6
:2001C20014F51B8006E51CFF14F51C7590FFE509C40354F8F5B0E51F2419F9E7FF240AF95D
:1F01E2008790051FE5097005750903800215097404B51F0280030200AF751F000200AF78
:06003500E478FFF6D8FD9F
:200013007900E94400601B7A00900205780175A000E493F2A308B8000205A0D9F4DAF2758C
:02003300A0FF2C
:20003B007800E84400600A790175A000E4F309D8FC7800E84400600C7900900001E4F0A3C3
:04005B00D8FCD9FAFA
:0D000600758121120201E5826003020003F2
:0402010075820022E0
:00000001FF
