:0400000002001132B7
:03000B0002006D83
:03006A0002000E83
:03000E000200925B
:20006D00C0E0C007C0D075D000E50804F508740AB50803750800C28D758C04758A00D0D09B
:20008D00D007D0E032C28C758901758A64758C00D2AFD2A975080175B0007509F0750AF964
:2000AD00750BA4750CB0750D99750E92750F827510F8751180751290D287E5082409F9871B
:0C00CD0090D28CE5082409F9879080F798
:06004000E478FFF6D8FD94
:20001E007900E94400601B7A009000DD780175A000E493F2A308B8000205A0D9F4DAF275AB
:02003E00A0FF21
:200046007800E84400600A790175A000E4F309D8FC7800E84400600C7900900001E4F0A3B8
:04006600D8FCD9FAEF
:0D0011007581121200D9E582600302000E15
:0400D900758200220A
:00000001FF
