:03000000020006F5
:03005F0002000399
:0300030002006296
:2000620075B0007509F0750AF9750BA4750CB0750D99750E92750F827510F87511807512DE
:20008200907513007514007515FF751900751A0C751B0C751C0C751D0C751E0C75080C7597
:2000A20080FD208405750809800E20850575080880062086037508077580FE208405750809
:2000C2000B800E208505750800800620860375080A7580FB208405750806800E20850575DF
:2000E200080580062086037508047580F7208405750803800E208505750802800620860346
:20010200750801740CB50805751F01803FE51EB50809E51EB50832E51F602E85081E0519B3
:200122007401B5190585081A801F7402B5190585081B80157403B5190585081C800B7404B3
:20014200B5190685081D751900751F0075B000E51A2409F98790751814D518FD75B00FE5F8
:200162001B2409F98790751814D518FD75B0F0E51C2409F98790751814D518FD75B0FFE5B3
:120182001D2409F98790751814D518FD75181402009E45
:06003500E478FFF6D8FD9F
:200013007900E94400601B7A00900198780175A000E493F2A308B8000205A0D9F4DAF275FA
:02003300A0FF2C
:20003B007800E84400600A790175A000E4F309D8FC7800E84400600C7900900001E4F0A3C3
:04005B00D8FCD9FAFA
:0D00060075811F120194E582600302000362
:04019400758200224E
:00000001FF
