:03000000020006F5
:03005F0002000399
:0300030002006296
:200062007508C07509F9750AA4750BB0750C99750D92750E82750FF875108075119075B088
:20008200FFC2B6D2B620B2FDC2B785A014D2B7AE147F007515338F168E828F831200E8AEE8
:1D00A20082AF838E1375B000E5132408F98790751264D512FD7512647590FF80C194
:06003500E478FFF6D8FD9F
:200013007900E94400601B7A00900124780175A000E493F2A308B8000205A0D9F4DAF2756E
:02003300A0FF2C
:20003B007800E84400600A790175A000E4F309D8FC7800E84400600C7900900001E4F0A3C3
:04005B00D8FCD9FAFA
:2000BF007A10E4FBFCE58225E0F582E58333F583EB33FBEC33FCEB9515F5F0EC951640063B
:0900DF00FCABF0438201DADD22E2
:0D000600758116120120E5826003020003DF
:2000E800C2D5E58330E70DD2D5E4C39582F582E49583F583E51630E70DB2D5E4C39515F599
:1801080015E49516F5161200BF30D50BE4C39582F582E49583F5832284
:0401200075820022C2
:00000001FF
