:03000000020006F5
:03005F0002000399
:0300030002006296
:200062007509C0750AF9750BA4750CB0750D99750E92750F827510F875118075129075131B
:20008200BF7514897515FF753200752700752800752900752600752500753400752F0C7583
:2000A200300C75310C752B00752C00E52B252B25E02419FF252CF87600052C74FC252C506D
:2000C200EA052B74FD252B50DF75080C7580F7208605750801800E20850575080280062019
:2000E20084037508037580FB208605750804800E208505750805800620840375080675807C
:20010200FD208605750807800E20850575080880062084037508097580FE20860575080A1C
:20012200800E208505750800800620840375080BE508B518030201FD740CB5080474018060
:2001420001E4FF60030201FD740BB50855E52570030201FDE526252625E02419F9E775F06B
:20016200E8A4FEE904F8E675F064A42EFE740229F8E675F00AA42EFE090909E7FD2EF52A87
:20018200E5267005852A2780127401B52605852A2880087402B52603852A297525000526D0
:2001A2008059740AB50835752600752500752700752800752900752B00752C00E52B252B47
:2001C20025E02419FE252CF87600052C74FC252C50EA052B74FD252B50DF801FEF701C7444
:2001E200FD2526401674FC25254010E526252625E02419FF2525F8A60805257403B5260250
:200202008003020315E528F5F0A4FFE52725E025E0FEAD298DF0EEA4FEEFC39EF52E20A080
:2002220046AE287F00C3E49EFEE49FFFAC2E7D007535028D368C828D83C007C0061203F2E4
:20024200AC82AD83D006D007EC2EF582ED3FF583AE277F00EE2EF535EF33F5361203F2AEC0
:2002620082AF838E2D8045AE287F00C3E49EFEE49FFFAC2E7D007535028D368C828D83C08A
:2002820007C0061203F2AC82AD83D006D007EEC39CF582EF9DF583AE277F00EE2EF535EF2C
:2002A20033F5361203F2AE82AF838E2DAE2D7F0075350A8F368E828F831203BCAE828E2F07
:2002C200AE2D7F0075350A8F368E828F831203F275350A7536001203BCAE828E30AE2D7FA8
:2002E200007535648F368E828F831203F275350A7536001203BCAE82AF83EEF531700EE5F7
:20030200307005753401800875340280037534037526007590FFE532C40354F8F5B0E533A4
:20032200242FF9E7FF2409F98790E52B7005752B038002152BE53370068534330200CB1506
:04034200330200CBB7
:06003500E478FFF6D8FD9F
:200013007900E94400601B7A0090042E780175A000E493F2A308B8000205A0D9F4DAF27561
:02003300A0FF2C
:20034600E535453660467A01E53525E0F535E536334012F536E5829535E583953640030A1C
:2003660080E6C3E53613F536E53513F535C3E5829535F5F0E58395364005F58385F082C31B
:0D038600E53613F536E53513F535DAE122DD
:20003B007800E84400600A790175A000E4F309D8FC7800E84400600C7900900001E4F0A3C3
:04005B00D8FCD9FAFA
:200393007A10E4FBFCE58225E0F582E58333F583EB33FBEC33FCEB9535F5F0EC9536400624
:0903B300FCABF0438201DADD220B
:0D00060075813612042AE5826003020003B2
:2003BC00C2D5E58330E70DD2D5E4C39582F582E49583F583E53630E70BE4C39535F535E4F2
:1603DC009536F53612034630D50BE4C39582F582E49583F58322DF
:2003F200C2D5E58330E70DD2D5E4C39582F582E49583F583E53630E70DB2D5E4C39535F54C
:1804120035E49536F53612039330D50BE4C39582F582E49583F5832240
:04042A0075820022B5
:00000001FF
