:03000000020006F5
:03005F0002000399
:0300030002006296
:2000620075086275B000750BC0750CF9750DA4750EB0750F997510927511827512F8751324
:2000820080751490E50824F6503DE508249C4037750A0085080974F62509500EE50924F6FA
:2000A200F509E50AFF04F50A80EC75B000E509240BF98790751614D516FD751614E50A2458
:1200C2000BF9879075B008751505D515FD75150580B2AD
:06003500E478FFF6D8FD9F
:200013007900E94400601B7A009000D8780175A000E493F2A308B8000205A0D9F4DAF275BB
:02003300A0FF2C
:20003B007800E84400600A790175A000E4F309D8FC7800E84400600C7900900001E4F0A3C3
:04005B00D8FCD9FAFA
:0D0006007581161200D4E58260030200032C
:0400D400758200220F
:00000001FF
